:020000040000FA
:0400000004283D286B
:040004000034003490
:0800080083160F3085008316FA
:1000100051309F00831287309F00831285010A3080
:100020000120C201C101C00183129F149F1816282C
:1000300083161E088312C000733040021E3CC100AC
:10004000C103C11B3128C103C11B3128C103C11B1E
:100050003128003085001030850000308500C20A4C
:10006000202842080B3CC20020308500303085003B
:0A00700020308500C20B34280F2851
:06007A008312C6000D30E8
:10008000C400C301C30B4228C40B4228C60B3F283F
:0200900000343A
:02400E00E43C90
:00000001FF
